:100000000C943E000C945B000C945B000C945B0021
:100010000C945B000C945B000C945B000C945B00F4
:100020000C945B000C945B000C945B000C945B00E4
:100030000C945B000C945B000C945B000C945B00D4
:100040000C945B000C945B000C945D000C945B00C2
:100050000C945B000C945B000C945B000C945B00B4
:100060000C945B000C945B000C945B000C945B00A4
:100070000C945B000C945B000C945B0011241FBE7D
:10008000CFEFD4E0DEBFCDBF11E0A0E0B1E0EAEEFB
:10009000F9E002C005900D92AA32B107D9F711E03C
:1000A000AAE2B1E001C01D92A735B107E1F70E94B5
:1000B0002F020C94F3040C9400001F920F920FB6C1
:1000C0000F921124EF92FF920F931F932F933F9360
:1000D0004F935F936F937F938F939F93AF93BF9350
:1000E000EF93FF93DF93CF93CDB7DEB72897DEBFB3
:1000F000CDBF7091ED008091EC00807F8093ED008A
:100100008091EE0085FF5EC09091EF009F709E0190
:100110002F5F3F4FF90103C08091FA0081938E2F2A
:10012000821B8917CCF3E090F3002091F2008091BC
:10013000F1006091F00030E040E050E0FDE0220F7F
:10014000331F441F551FFA95D1F7FF2400E010E03C
:10015000E5E1EE0CFF1C001F111FEA95D1F72E0DF3
:100160003F1D401F511F669566956695260F311DF0
:10017000411D511D90E065E0880F991F6A95E1F7D8
:10018000AA2797FDA095BA2F280F391F4A1F5B1F7A
:1001900080912B0190912C01A0E0B0E02817390745
:1001A0004A075B0761F4998180E02A81820F911DE3
:1001B000909338018093370181E080932A0188E988
:1001C0008093EF001092EE007093ED002896DEBF52
:1001D000CDBFCF91DF91FF91EF91BF91AF919F91F3
:1001E0008F917F916F915F914F913F912F911F91CF
:1001F0000F91FF90EF900F900FBE0F901F901895EA
:100200000F931F938B019C011092ED008091DC00F5
:1002100080FDFCCF1092EE00D901C80175E1B595C3
:10022000A795979587957A95D1F78093F300D90193
:10023000C8016DE0B595A795979587956A95D1F713
:100240008093F200D901C80155E0B595A79597951F
:1002500087955A95D1F78093F100A3E0000F111F05
:10026000221F331FAA95D1F70093F000EFE2F1E0CF
:10027000242F30E02E0F3F1F03C081918093FA009E
:10028000E217F307D1F740654093EF008091EE004D
:1002900086FD04C08091EE0080FFF8CF1092EF0041
:1002A0001092EE001F910F91089527E08F39920769
:1002B0009CF5A0E0B1E0E0E0F0E04D915C91119799
:1002C0004817590724F112966D917C91139768177E
:1002D0007907ECF4841B950B9C01A3E0220F331FDC
:1002E000AA95E1F7641B750B880F991F820F931F66
:1002F0000E94CC04CF01B3E0880F991FBA95E1F7B3
:10030000EE0FFF1F8E0F9F1F680F791F07C03196DA
:100310001296E431F10589F660E070E0CB010895B2
:1003200089E184B982E887B988E08AB994E095B90F
:1003300080E388B980E88BB981E08093D80010927F
:10034000E50086E08093E2009093E30083E18093F0
:10035000E40090E0892F8295807F8093ED001092D9
:10036000EF001092EE009F5F9630A1F780E180933E
:10037000ED0082E08093DE0080EA8093DB00109243
:10038000F7001092F6001092F5001092F40088E940
:100390008093EF008091D80082608093D800089508
:1003A00083B1282F30E036952795369527952095EF
:1003B000309521703070359902C02E5F3F4F3499CF
:1003C00002C02C5F3F4F4F9902C0285F3F4FC901C9
:1003D00043E0880F991F4A95E1F7220F331F820FE0
:1003E000931F845D9E4F90932C0180932B01089561
:1003F00040E850E020E030E0682F70E0E5E0CA011E
:1004000086239723892B11F02C9A01C02C988E2FCC
:100410008A95F1F7479A8E2F8A95F1F747982F5FC3
:100420003F4F2830310519F056954795E8CF08958C
:1004300080E040E820E030E055E0952F9A95F1F714
:10044000479A952F9A95F1F73699840F47982F5F21
:100450003F4F2830310511F04695EFCF08952F9288
:100460003F924F925F926F927F928F929F92AF9244
:10047000BF92CF92DF92EF92FF920F931F93DF9381
:10048000CF93CDB7DEB7C050D1400FB6F894DEBFE2
:100490000FBECDBF88EE93E028EC30E0F901319734
:1004A000F1F70197D9F70E9490010E94D00180E0F6
:1004B00090E0FC01EE0FFF1FE35CFE4F1182108203
:1004C00001968C309105A9F710923A0110923901EA
:1004D00010923C0110923B0178942BE088E190E06F
:1004E0000FB6F894A895809360000FBE209360002B
:1004F000DD24BB2456E0652E712C6C0E7D1ECE01D2
:100500004F96C150DF4F99838883CF5FD0404E0113
:100510000894811C911C4FE3242E312C2C0E3D1E7F
:1005200031E0432E512CA8952B9881E00E94F801D0
:1005300081E00E94F801809155010E94F8018091AC
:1005400056010E94F80180E00E94F80180E00E94BC
:10055000F80180E00E94F8012B9A88EC90E0019766
:10056000F1F72B9880E10E94F8012B9A80E49CE936
:100570000197F1F72B9880E30E94F8012B9A80E114
:1005800097E20197F1F72B9884E00E94F8012C9AEA
:1005900083010E941802F80181938F01C150DF4F3F
:1005A00088819981CF5FD040E817F90791F72B9A9E
:1005B00088EC90E00197F1F72B9888E00E94F80111
:1005C0002C9A84010E941802F80181938F01E6158C
:1005D000F705C1F72B9A88EC90E00197F1F76D2DA4
:1005E00070E08B01000F111F020D131DEE24FF247C
:1005F000D701B595A795E7E0F0E0EC0FFD1FEA0FF6
:10060000FB1F4081242F30E02F703070322F2227C3
:10061000F301EA0FFB1F8081280F311DC901880FEC
:10062000991F820F931F95958795F8019183808379
:1006300042954F7088E090E08C0F9D1FA80FB91F66
:100640008C9190E054E0880F991F5A95E1F7840F40
:10065000911D9C01220F331F280F391F35952795B7
:10066000318B208BE6E0F0E0EE0EFF1E005E1F4FA8
:10067000F4E2EF16F10409F0BBCF3A81FB01EE0F73
:10068000FF1FE80DF91D832F90E08F709070982F59
:1006900088272981820F911D978F868F685F7F4FF2
:1006A000660F771F680D791D32953F708B8190E042
:1006B00054E0880F991F5A95E1F7830F911DFB01B4
:1006C000978F868FD394F7E0FD1508F0E0C0B394C0
:1006D00023E02B1508F4BB24C0905501D09056019F
:1006E000AA24EE24FF2476C08191919162E070E00B
:1006F0000E94CC04060F171F2F5F3F4F2830310593
:1007000099F71595079515950795F701EE0FFF1FBA
:10071000E35CFE4F118300838081918118161906D6
:100720008CF480819181069691838083E114F10499
:1007300049F480913D0190913E01029790933E01D2
:1007400080933D01F701EE0FFF1FE35CFE4F8081B8
:1007500091818958934114F011821082F701EE0FB4
:10076000FF1FE35CFE4F808191811816190614F477
:10077000AA24A394F701EE0FFF1FE35CFE4F208134
:10078000318180913701909138018217930780F46D
:100790008091370190913801892B51F0C2010E2CC4
:1007A00002C0880F991F0A94E2F7C82AD92A0BC001
:1007B000C2010E2C02C0880F991F0A94E2F780959F
:1007C0009095C822D9220894E11CF11C8CE0E8160F
:1007D000F10469F0F70104E0EE0FFF1F0A95E1F75D
:1007E000E20DF31D00E010E020E030E07DCFC0928C
:1007F0005501D092560160E070E01AC0819191914C
:10080000480F591F2F5F3F4F28303105B9F713E0CC
:10081000559547951A95E1F7FB01EE0FFF1FE75C31
:10082000FE4F518340836F5F7F4F6230710589F0C7
:10083000FB01A4E0EE0FFF1FAA95E1F78FE190E026
:100840008C0F9D1FE80FF91F40E050E020E030E0E2
:10085000D5CF5B98419A2B2D30E080E090E0CD28F9
:1008600011F081E090E082239323892B29F4AA20C0
:1008700029F4419820FF0AC05B9A08C080912D019D
:1008800090912E01809711F420FD4198DD248091F4
:100890002D0190912E018032910534F401969093B0
:1008A0002E0180932D0104C010923801109237015F
:1008B00080912A01882309F468C010922A011092BD
:1008C0002E0110922D0100E010E0EE24FF2431C033
:1008D000F901EE0FFF1FE35CFE4F80819181892FAC
:1008E000990F990B8C938081918111968C9311971C
:1008F0002F5F3F4F129691E0A733B90749F76091F8
:100900002B0170912C016F5F7F4F600F711F80E092
:1009100090E048E00E94000180ED97E00197F1F738
:100920000F5F1F4FE4E0F0E0EE0EFF1E03301105F5
:1009300021F0AFE2B1E09701CBCF809139019091E6
:100940003A010E94550180932F0180913B019091C3
:100950003C010E94550180933001109236011092A3
:10096000350110923401109233011092320110922D
:10097000310160912B0170912C016C5F7F4F80E001
:1009800090E048E00E94000104C080E49FE10197EC
:10099000F1F70E94D001C7CD97FB092E07260AD098
:1009A00077FD04D00CD006D000201AF47095619524
:1009B0007F4F0895F6F7909581959F4F0895AA1B54
:1009C000BB1B51E107C0AA1FBB1FA617B70710F03A
:1009D000A61BB70B881F991F5A95A9F7809590956C
:0A09E000BC01CD010895F894FFCF8B
:1009EA00C3079A075407E3063F066A0574047A03A5
:1009FA009C02EC016001F900B0007E005B0041003E
:0A0A0A00300024001C00140010004E
:00000001FF
