:100000000C943E000C9450000C9450000C94500042
:100010000C9450000C9450000C9450000C94500020
:100020000C9450000C9450000C9450000C94500010
:100030000C9450000C9450000C9450000C94500000
:100040000C9450000C9452000C9469000C945000D5
:100050000C9450000C9450000C9450000C945000E0
:100060000C9450000C9450000C9450000C945000D0
:100070000C9450000C9450000C94500011241FBE9E
:10008000CFEFD4E0DEBFCDBF11E0A0E0B1E001C012
:100090001D92A631B107E1F70E94C8020C945404E6
:1000A0000C9400001F920F920FB60F9211248F93A1
:1000B0009F9380910001909101010196909301011D
:1000C000809300019F918F910F900FBE0F901F9012
:1000D00018951F920F920FB60F921124EF92FF9274
:1000E0000F931F932F933F934F935F936F937F9340
:1000F0008F939F93AF93BF937091ED008091EC002D
:10010000807F8093ED008091EE0085FF49C0909143
:10011000EF009F7080E003C02091FA008F5F891785
:10012000DCF3E090F3008091F2002091F100609107
:10013000F00090E0A0E0B0E01DE0880F991FAA1F3A
:10014000BB1F1A95D1F7FF2400E010E055E1EE0C3B
:10015000FF1C001F111F5A95D1F78E0D9F1DA01F68
:10016000B11F669566956695860F911DA11DB11DFF
:1001700030E045E0220F331F4A95E1F7442737FD71
:100180004095542F820F931FA41FB51F8997A10577
:10019000B10519F481E08093070188E98093EF00AD
:1001A0001092EE007093ED00BF91AF919F918F91EF
:1001B0007F916F915F914F913F912F911F910F917F
:1001C000FF90EF900F900FBE0F901F9018958064D6
:1001D00080937C008AE18A95F1F780917A008064AF
:1001E00080937A0080917A0084FFFCCF80917A001E
:1001F000806180937A002091780030917900C90164
:1002000008958FE00E94E7009C0182E020303807CB
:1002100014F020503440C90108950F931F9389E0D2
:100220000E94E7008C0188E00E94E700081B190B80
:10023000980193E0220F331F9A95E1F7000F111FE9
:10024000200F311FC9011F910F9108954B9B07C0CB
:100250004A9B05C0660F771F881F991F16C04B99D0
:100260000AC04A9B08C0F2E0660F771F881F991FDB
:10027000FA95D1F70AC04B9B08C04A9906C02AE0FC
:1002800030E040E050E00E94C1034C9916C09B0151
:10029000AC01220F331F441F551F260F371F481F65
:1002A000591FB901CA0122E030E040E050E00E944D
:1002B000E003C901DA01BC01CD0126E630E040E0EF
:1002C00050E00E94C1032EEB30E040E050E00E947D
:1002D000E003CA01B9010895EF92FF920F931F93B3
:1002E0007B018C01622F1092ED008091DC0080FD7B
:1002F000FCCF1092EE00D801C70175E1B595A79526
:10030000979587957A95D1F78093F300D801C70127
:100310003DE0B595A795979587953A95D1F7809348
:10032000F200D801C70125E0B595A7959795879567
:100330002A95D1F78093F100B3E0EE0CFF1C001F6B
:10034000111FBA95D1F7E092F000FA0190E004C0D5
:1003500081918093FA009F5F9617D1F790659093F3
:10036000EF008091EE0086FD04C08091EE0080FFDA
:10037000F8CF1092EF001092EE001F910F91FF90B6
:10038000EF90089583E084B98BB18C638BB991E0D1
:1003900095BD90936E0080917C00806480937C007A
:1003A00080917A00866880937A0080917B008062D9
:1003B00080937B0080917600806A80937600909392
:1003C000D8001092E50086E08093E20084E08093FC
:1003D000E30083E18093E40090E0892F8295807FA1
:1003E0008093ED001092EF001092EE009F5F963028
:1003F000A1F780E18093ED0082E08093DE0080EA47
:100400008093DB001092F7001092F6001092F50036
:100410001092F40088E98093EF008091D800826008
:100420008093D8000895609114017091150184E0C3
:1004300090E00E943F04609108017091090186E0FC
:1004400090E00E943F046091080170910901809141
:10045000140190911501680F791F88E090E00E94C7
:100460003F048AE090E04EEE5FEF60EC70E00E94A7
:10047000370480E090E060E00E9429040895EF9244
:10048000FF920F931F93CF93DF9380ED97E028ECBB
:1004900030E0F9013197F1F70197D9F7109209018E
:1004A000109208011092150110921401C0E0D0E0E2
:1004B000F0E2EF2EFEE4FF2EC7010197F1F7009165
:1004C0001401109115010E940D01080F191F1093BE
:1004D0001501009314012196C032D10569F7C0E0DF
:1004E000D0E0E0E2EE2EEEE4FE2EC7010197F1F738
:1004F00000910801109109010E940101080F191FC4
:1005000010930901009308012196C032D10569F7C3
:100510000E941302DF91CF911F910F91FF90EF90F6
:100520000895EF92FF920F931F938AE090E00E944C
:100530001D046E5E7F4F804C904011F080E023C020
:1005400084E090E00E9423047C0190931501809345
:10055000140186E090E00E9423048C01909309012D
:100560008093080188E090E00E9423040E0D1F1D77
:100570000817190711F081E006C080E090E060E004
:100580000E94290482E01F910F91FF90EF9008953F
:100590000F931F93CF93DF930E94C2010E94910299
:1005A000823010F40E943F02ECE0F1E0119281E011
:1005B000E431F807D9F7789410E0C0E0D0E001E02A
:1005C00001C010528091000190910101863F910578
:1005D000A4F1855F90409093010180930001809188
:1005E0000601882319F00E94010102C00E940D013A
:1005F000BC019C01442737FD4095542F8091020196
:1006000090910301A0910401B0910501820F931F05
:10061000A41FB51F8093020190930301A0930401CE
:10062000B093050161577E4F6F51734018F40093EA
:10063000060102C0109206011F5F103218F22196C7
:100640008091060120910201309103014091040143
:1006500050910501882329F08091080190910901AA
:1006600004C08091140190911501AA2797FDA095CF
:10067000BA2F281B390B4A0B5B0B209302013093D6
:100680000301409304015093050180910201909170
:100690000301A0910401B0910501815B9F4FAF4F11
:1006A000BF4F8F399105A105B10550F4299A1092D9
:1006B000020110920301109204011092050105C07D
:1006C000C0FF02C0299A01C029986091020170916F
:1006D000030180910401909105010E9426012AE006
:1006E00030E040E050E00E94C10324E030E040E010
:1006F00050E00E94E0032050304040485F4F10928D
:100700000201109203011092040110920501CA0126
:10071000BB2797FDB095AB2F80930C01BB2757FDEE
:10072000BA95A52F942F832F80930D0120930E014E
:1007300068E270E080E090E04CE051E028E00E9448
:100740006C014D990AC080910A0190910B010196AC
:1007500090930B0180930A0104C010920B01109238
:100760000A0180910A0190910B01049729F0809170
:100770000701882309F425CF0E943F021092070148
:1007800020CF629FD001739FF001829FE00DF11D89
:10079000649FE00DF11D929FF00D839FF00D749FFB
:1007A000F00D659FF00D9927729FB00DE11DF91FA7
:1007B000639FB00DE11DF91FBD01CF011124089504
:1007C00097FB092E05260ED057FD04D014D00AD071
:1007D000001C38F450954095309521953F4F4F4F70
:1007E0005F4F0895F6F790958095709561957F4FCE
:1007F0008F4F9F4F0895A1E21A2EAA1BBB1BFD012C
:100800000DC0AA1FBB1FEE1FFF1FA217B307E407EF
:10081000F50720F0A21BB30BE40BF50B661F771F47
:10082000881F991F1A9469F7609570958095909527
:100830009B01AC01BD01CF010895A6E1B0E044E009
:1008400050E00C944604A8E1B0E042E050E00C9483
:100850004604262FF999FECF1FBA92BD81BD20BD57
:100860000FB6F894FA9AF99A0FBE01960895242FBC
:100870000E942A04252F0E942A040C943F040E94FF
:100880002904272F0C942A04DC01CB01FC01F999DF
:10089000FECF06C0F2BDE1BDF89A319600B40D92CC
:0C08A00041505040B8F70895F894FFCF85
:00000001FF
