:100000000C943E000C945B000C945B000C945B0021
:100010000C945B000C945B000C945B000C945B00F4
:100020000C94A9030C94B3030C94BD030C945B00D3
:100030000C945B000C945B000C949E000C945B0091
:100040000C9477000C945D000C94BA000C945B0047
:100050000C945B000C945B000C945B000C945B00B4
:100060000C945B000C945B000C945B000C945B00A4
:100070000C945B000C945B000C945B0011241FBE7D
:10008000CFEFD4E0DEBFCDBF11E0A0E0B1E0E8EEFD
:10009000F3E202C005900D92A83CB107D9F714E035
:1000A000A8ECB1E001C01D92A13AB107E1F70E94AE
:1000B000FD060C94F2110C9400001F920F920FB6E3
:1000C0000F9211248F939F938091CC019091CD0139
:1000D00001969093CD018093CC0181E08093DC0266
:1000E0009F918F910F900FBE0F901F9018951F92A8
:1000F0000F920FB60F9211248F938091DC02882308
:1001000069F080912D01813009F45C9880912E0175
:10011000813009F459981092DC020AC080912D01B7
:10012000813009F45C9A80912E01813009F4599A4A
:100130008F910F900FBE0F901F9018951F920F92E6
:100140000FB60F9211248F939F938091FA01909193
:10015000FB019093870080938600969587959093F6
:100160008900809388009F918F910F900FBE0F9010
:100170001F9018951F920F920FB60F9211248F9215
:100180009F92AF92BF92CF92DF92EF92FF920F9326
:100190001F932F933F934F935F936F937F938F930F
:1001A0009F93AF93BF93EF93FF93DF93CF93CDB71D
:1001B000DEB72897DEBFCDBFA090ED008091EC00A8
:1001C000807F8093ED008091EE0085FF9EC2B0900D
:1001D000EF004FE0B4226E010894C11CD11CF6015F
:1001E00003C08091FA0081938E2F8C198B15CCF36C
:1001F0002091F3007091F2008091F1006091F00085
:10020000E72EFF2400E010E0EDE0EE0CFF1C001FE5
:10021000111FEA95D1F730E040E050E075E1220F80
:10022000331F441F551F7A95D1F7E20EF31E041FAA
:10023000151F669566956695E60EF11C011D111D4C
:1002400090E025E0880F991F2A95E1F7AA2797FDEE
:10025000A095BA2FE80EF91E0A1F1B1FC801B7018F
:100260006C527140804090406A3A71058105910559
:1002700008F09AC02AE030E040E050E00E94761199
:10028000D90197012C52314086EF9FEFBC01A69F08
:10029000C001A79F900DB69F900D1124280F391F04
:1002A0002230310591F1233031052CF42130310514
:1002B00009F028C209C02330310509F447C02430B1
:1002C000310509F01FC263C0FD01EE0FFF1FEA0FE9
:1002D000FB1F03E0EE0FFF1F0A95E1F7EE50FD4F05
:1002E000AE01475F5F4FD6013C9120E011968C91A3
:1002F000B901680F711D6193719382E090E0C80E9F
:10030000D91EC416D50679F7FDC1FD01EE0FFF1FFA
:10031000EA0FFB1F73E0EE0FFF1F7A95E1F7E6503F
:10032000FD4FAE01475F5F4FD6013C9120E0119633
:100330008C91B901680F711D6193719382E090E017
:10034000C80ED91EC416D50679F7DCC1FD01EE0F23
:10035000FF1FEA0FFB1F53E0EE0FFF1F5A95E1F757
:10036000EE5FFC4FAE01475F5F4FD6013C9120E04E
:1003700011968C91B901680F711D6193719382E0A0
:1003800090E0C80ED91EC416D50679F7BBC1FD0191
:10039000EE0FFF1FE454FD4F898180838A818183A2
:1003A000A357BB4F1C92AEC195E2E916F1040105BB
:1003B000110559F56981623100F521E030E040E036
:1003C00050E0062E04C0220F331F441F551F0A940D
:1003D000D2F78091EC019091ED01A091EE01B091E6
:1003E000EF01822B932BA42BB52B8093EC019093E0
:1003F000ED01A093EE01B093EF018091DC0186172F
:1004000009F080C11092DC017DC1AFE1EA16F10470
:100410000105110549F489818093C6018A81809381
:100420008504109286046EC1B0E2EB16F10401055A
:10043000110541F540E050E0DE011196FD01E40FA9
:10044000F51F8081682F70E0FA01E95CFE4F808122
:10045000282F30E0FA01E65AFE4FE0816217730759
:100460003CF08E2F90E09C01621773070CF49B0107
:10047000FA01EC5EFE4F20834F5F5F4F483051051D
:10048000E9F640C1E1E2EE16F1040105110571F54E
:10049000AFE3B1E032E6832E31E0932E0CE111E0C0
:1004A00029E0E22EF12CEC0EFD1EF6018081482F92
:1004B00050E08C91282F30E0F401608142175307FF
:1004C0003CF0862F90E09C01421753070CF49A01F0
:1004D000F80121938F010894C11CD11C1196089436
:1004E000811C911CCE14DF0401F70CC1F2E2EF165F
:1004F000F1040105110571F5A7E4B1E09AE6892E32
:1005000091E0992E04E211E089E0E82EF12CEC0E46
:10051000FD1EF6018081482F50E08C91282F30E09D
:10052000F4016081421753073CF0862F90E09C0154
:10053000421753070CF49A01F80121938F01089494
:10054000C11CD11C11960894811C911CCE14DF048F
:1005500001F7D8C0F3E2EF16F1040105110589F5A2
:10056000AFE4B1E0F2E78F2EF1E09F2E0CE211E054
:10057000E9E0EE2EF12CEC0EFD1EF6018081482FF5
:1005800050E08C91282F30E0F4016081421753072E
:100590003CF0862F90E09C01421753070CF49A011F
:1005A000F80121938F010894C11CD11C1196089465
:1005B000811C911CCE14DF0401F781E08093F001CF
:1005C000A1C0F4E2EF16F1040105110599F4E0EA87
:1005D000F1E09E01275F3F4FD6018D916D01982F6D
:1005E0009F70908382958F7081833296A217B30794
:1005F00099F788C0B6E2EB16F10401051105A9F5DB
:10060000BB2011F189818536F8F4E82EFF2400E043
:1006100010E06091E5027091E6028091E70290910E
:10062000E80224E630E040E050E00E947611C80184
:10063000B7010E94301160939D0470939E048093D3
:100640009F049093A0045EC08091E5029091E60221
:10065000A091E702B091E80280939D0490939E04DC
:10066000A0939F04B093A0044DC0E8E2EE16F104FD
:100670000105110571F52B8130E040E050E020507C
:100680003040404850408A8190E0A0E0B0E0BA2F6E
:10069000A92F982F8827280F391F4A1F5B1F898190
:1006A00090E0A0E0B0E0DC0199278827280F391FEF
:1006B0004A1F5B1F2093CE013093CF014093D0019E
:1006C0005093D10184E090E09093D3018093D201C4
:1006D00019C0F3E3EF16F1040105110521F481E0DF
:1006E0008093F1010FC04DE2E416F10401051105FC
:1006F00049F4998180E02A81820F911D9093DB015A
:100700008093DA0188E98093EF001092EE00A092C6
:10071000ED002896DEBFCDBFCF91DF91FF91EF9125
:10072000BF91AF919F918F917F916F915F914F9109
:100730003F912F911F910F91FF90EF90DF90CF90FD
:10074000BF90AF909F908F900F900FBE0F901F9013
:1007500018951F920F920FB60F9211240F900FBE93
:100760000F901F9018951F920F920FB60F921124A1
:100770000F900FBE0F901F9018951F920F920FB6FB
:100780000F9211240F900FBE0F901F901895806448
:1007900080937C008AE18A95F1F780917A008064E9
:1007A00080937A0080917A0084FFFCCF80917A0058
:1007B000806180937A002091780030917900C9019E
:1007C00008958A3111F442E001C040E1E82FF0E0E1
:1007D000EC5EFE4F8081833019F1843038F4882339
:1007E00009F44CC0823009F066C009C0853009F4B4
:1007F00041C0853070F1863009F05DC043C0809102
:10080000EF028823D9F18530C9F18091150190E07C
:100810002091D8013091D9018217930778F143C014
:100820008091EF02882351F1853041F18091C80118
:100830009091C901819714F18091190190E0209164
:10084000EB023091EC02281739076CF58091E0013A
:1008500013C08091EF02882389F0853079F0809170
:10086000DF01882359F08091C8019091C9018197D7
:100870002CF019C08091DC018823A9F48BB140953C
:10088000482313C08091EF02823069F0833079F4FD
:100890008091D8019091D9018436910521F0809101
:1008A000F70181FF04C08BB1482B4BB908958BB180
:1008B000409548234BB908958093DC0108954798EB
:1008C000289A299810928000109281005A988BB132
:1008D0008D7E8BB988E10FB6F894809360001092FA
:1008E00060000FBE83B7817F846083BF83B7816060
:1008F00083BF889583B78E7F83BF2CE088E190E02B
:100900000FB6F894A895809360000FBE2093600006
:10091000479A2898299A82E88093800084E18093FE
:1009200081001092F3011092F2010895E0EAF1E0E3
:1009300020E030E08191280F311D81E0E03BF80795
:10094000C9F73093CB012093CA010895EF92FF922B
:100950000F931F937B018C01622F1092ED00809109
:10096000DC0080FDFCCF1092EE00D801C70175E1DC
:10097000B595A795979587957A95D1F78093F300CC
:10098000D801C7013DE0B595A795979587953A950C
:10099000D1F78093F200D801C70125E0B595A7955E
:1009A000979587952A95D1F78093F100F3E0EE0CA7
:1009B000FF1C001F111FFA95D1F7E092F000FA0119
:1009C00090E004C081918093FA009F5F9617D1F761
:1009D00090659093EF0020E048EC50E006C0CA011B
:1009E0000197F1F7253649F02F5F8091EE0086FDE3
:1009F00004C08091EE0080FFF2CF1092EF001092C1
:100A0000EE001F910F91FF90EF9008958BE184B954
:100A100082EC87B98EE18AB980E285B98BB981E829
:100A200084BD21E025BD85E080936E0082E880933F
:100A3000800084E18093810020936F0088EE93E032
:100A4000909387008093860084EF91E090938900D3
:100A50008093880084E5809369008EE08DBB80914F
:100A60007C00806480937C0080917A00866880930B
:100A70007A0080917B00806280937B002093D80075
:100A80001092E50086E08093E20084E08093E3002A
:100A900083E18093E40090E0892F8295807F8093AA
:100AA000ED001092EF001092EE009F5F9630A1F7DC
:100AB00080E18093ED0082E08093DE0080EA809305
:100AC000DB001092F4008091F4008093F500809197
:100AD000F5008093F6008091F6008093F70088E996
:100AE0008093EF008091D80082608093D8000895B1
:100AF0001F93182F80E090E0FC01E357FB4F10821A
:100B0000019680319105C1F78091EF0282508230C9
:100B100050F4112311F0143031F48BE790E0609120
:100B2000D8010E94C7112898479A299A1092F30178
:100B30001092F201133029F1143028F4113081F0B1
:100B4000123029F412C0143001F1153021F188B1AE
:100B50008D7B88B985B1877E85B91092DC011BC079
:100B60002B9A419A1092EB0103C0469A2B9A419816
:100B70001092EC011092ED011092EE011092EF0133
:100B80000AC085B1886185B9F3CF88B18D7B88B9FA
:100B900085B1877E85B91093EF021092C90110923A
:100BA000C8011092D5011092D4011F910895CF92DF
:100BB000DF92EF92FF920F931F93CF93DF9388E121
:100BC0000FB6F89480936000109260000FBEF89406
:100BD000C4E1D1E0CC24DD2404E010E0C801688148
:100BE0000E94C7118991C80ED11C0F5F1F4F81E071
:100BF000C733D80799F7C0EAD1E0E7E2EE2EF12C2F
:100C000019811295107F8881180FC701612F0E94EA
:100C1000C711C10ED11C22960894E11CF11C81E081
:100C2000C03BD80769F78FE290E0B6010E94DD1162
:100C300081E390E04EEE5FEF60EC70E00E94D51132
:100C400078942CE088E190E00FB6F894A895809312
:100C500060000FBE2093600012BC11BC60911401B3
:100C600070E080E090E020E437E74BE150E00E9444
:100C700030116093E5027093E6028093E70290934F
:100C8000E802E0909D04F0909E0400919F04109172
:100C9000A00417FF05C080E090E0A0E0B0E00AC02B
:100CA000AC01CB01DA01E816F9060A071B0714F4B8
:100CB000D801C70180939D0490939E04A0939F0444
:100CC000B093A0040E949604DF91CF911F910F91E1
:100CD000FF90EF90DF90CF900895CF92DF92EF9248
:100CE000FF920F931F93DF93CF93CDB7DEB7E397B8
:100CF0000FB6F894DEBF0FBECDBF81E390E00E9437
:100D0000BB116E5E7F4F804C904011F080E066C05A
:100D1000CC24DD2400E010E0F1E1EF2EF12CEC0E0C
:100D2000FD1EC80104960E94B311F701E00FF11FE8
:100D30008083C80ED11C0F5F1F4F0332110589F746
:100D40007E010894E11CF11C07E210E0C8010E943A
:100D5000B311982F9F70F7019083982F92959F70F1
:100D60009183C80ED11C0F5F1F4F82E090E0E80E08
:100D7000F91E0F32110551F78FE290E00E94C11168
:100D8000C816D90611F081E029C020E030E0AE019C
:100D90004F5E5F4FF901EC5EFE4FDA01A20FB31F09
:100DA0008C9180832F5F3F4F2332310599F720E0EC
:100DB00030E0AE014F5F5F4FF901E056FE4FDA01C0
:100DC000A20FB31F8C9180832F5F3F4F20313105DD
:100DD00099F70E94960412BC11BC82E0E3960FB60C
:100DE000F894DEBF0FBECDBFCF91DF911F910F9161
:100DF000FF90EF90DF90CF9008952F923F924F9207
:100E00005F926F927F928F929F92AF92BF92CF929A
:100E1000DF92EF92FF920F931F93DF93CF93CDB7A3
:100E2000DEB72C970FB6F894DEBF0FBECDBF0E9481
:100E3000060588EE93E028EC30E0F9013197F1F7F0
:100E40000197D9F7479A2898299A0E946D0682300F
:100E500028F481E08093DC010E94D70560911401A1
:100E600070E080E090E020E437E74BE150E00E9442
:100E700030115B016C016093E5027093E602809390
:100E8000E7029093E8028BE790E00E94B311282FCD
:100E900030E0C9018536910514F084E690E07C01CC
:100EA0000027F7FC0095102FC601B50124E630E0BD
:100EB00040E050E00E947611C801B7010E94301155
:100EC00060939D0470939E0480939F049093A0046C
:100ED00078942CE088E190E00FB6F894A895809380
:100EE00060000FBE209360001092EF021092C601C6
:100EF00020E030E041E00AC0419301968C3091053A
:100F0000D9F72F5F3F4F2031310571F0F901EE0F16
:100F1000FF1FE20FF31FEE0FFF1FEE0FFF1FE45046
:100F2000FE4F80E090E0E8CF4424BAE06B2E1E0133
:100F30000894211C311C8091F001882321F010922B
:100F4000F0010E94D7058091F101882309F46FC058
:100F50001092F10120E030E0F901E352FD4FD90198
:100F6000AC5EBE4F8C9180832F5F3F4F28303105A0
:100F700099F764E370E080E090E04DED52E028E006
:100F80000E94A6040CE111E0ADEDEA2EA2E0FA2EDB
:100F9000F701D8018D918D018193B1E004321B07D7
:100FA000C1F765E370E080E090E04DED52E028E0AD
:100FB0000E94A604EDEDF2E0D8018D918D018193A0
:100FC000B1E00C321B07C1F766E370E080E090E00F
:100FD0004DED52E028E00E94A604F801ADEDB2E02C
:100FE00081918D9321E0E433F207D1F767E370E05C
:100FF00080E090E04DED52E028E00E94A604E0EA97
:10100000F1E081818295807F9081890FD7018D9356
:101010007D013296B1E0E03BFB0799F768E370E0B1
:1010200080E090E04DED52E028E00E94A60480911F
:10103000CC019091CD018B5E91400CF4ECC080917D
:10104000CC019091CD018A5E91409093CD01809327
:10105000CC018091CA019091CB01181619060CF0B1
:101060005CC0F42CF394FFE0FF1508F4FF24F414A3
:1010700039F0EF2DF0E0E056FE4F8081882391F3A8
:10108000809123018B3F39F420918B0430918C04A3
:10109000265F3F4F0AC08C3F19F420E030E005C0C6
:1010A000869D900111242053384F1092DE02109239
:1010B000DD028091EF02833051F0823061F4809143
:1010C00023018B3F20F080913101813021F4309356
:1010D000DD022093DE020F2D10E0B801660F771FAE
:1010E0009801E3E0220F331FEA95E1F7620F731FC7
:1010F000645D7E4F882777FD8095982F4DED52E0F7
:1011000022E00E94A604F801E357FB4F8081843659
:1011100018F480818F5F80834F2C83E00E94C70387
:101120000FEF13E0081B190B88E00E94C7034FEF75
:1011300053E0481B590B9A01200F311F8091820404
:1011400090918304820F931F909383048093820471
:101150008091870490918804080F191F041B150BB8
:1011600010938804009387046091CE017091CF01A1
:101170008091D0019091D10128EE33E040E050E021
:101180000E947611C90137FF03C0909581959F4F4A
:10119000853091051CF485E090E006C024E0813B99
:1011A000920714F080EB94E09C01442737FD4095B2
:1011B000542F66E37EE681E090E00E947611CA013A
:1011C000B90120911C0130E040E050E00E9476110E
:1011D0003093FB012093FA010091E9021091EA0299
:1011E00089E00E94C703080F191F1093EA020093B9
:1011F000E9028091F6018F5F8093F6018091C8012A
:101200009091C90135E7803393072CF401969093B0
:10121000C9018093C8018091F601883008F475C730
:1012200088508093F6018091F7018F5F8093F701DA
:101230008091EF02882311F0843091F42091F20123
:101240003091F30145E72033340754F480912B01AA
:10125000863031F02F5F3F4F3093F3012093F2013E
:1012600080912B0150EF859FC00111242091F20144
:101270003091F3012817390711F40E945F0480911F
:10128000D2019091D3011816190634F40197909366
:10129000D3018093D20108C01092CE011092CF01E9
:1012A0001092D0011092D1016091CE017091CF01C6
:1012B0008091D0019091D10128ED3FEF4FEF5FEF8A
:1012C0000E94761180919D0490919E04A0919F04AC
:1012D000B091A004280F391F4A1F5B1F8091E502BF
:1012E0009091E602A091E702B091E80257FF05C095
:1012F00020E030E040E050E007C082179307A407E9
:10130000B50714F49C01AD0120939D0430939E0415
:1013100040939F045093A004809187049091880487
:101320009C0173E0220F331F7A95E1F7880F991F14
:10133000280F391F37FF03C0309521953F4F80910B
:101340008204909183046AE070E00E944F11C90109
:101350000E944F11CB016536710514F084E690E0D0
:1013600097FF02C080E090E064E670E0681B790BB4
:10137000709373046093720410928804109287042F
:101380002091820430918304C901880F991F63E082
:1013900070E00E944F11FB01C90164E170E00E94FE
:1013A0004F11E61BF70BE931F10530F07296F0931F
:1013B0008A04E09389040AC010928A041092890476
:1013C00085E690E0909373048093720410928304F6
:1013D0001092820410927404109275041092760494
:1013E0001092770448E8A42E43E1B42ECC24DD24E7
:1013F00000E010E032C0608171819B01442737FD1D
:101400004095542F8091740490917504A0917604B6
:10141000B0917704820F931FA41FB51F80937404AB
:1014200090937504A0937604B09377046A157B05B6
:101430000CF45B01C616D7060CF46B010894E11C92
:10144000F11C3296D4018C9190E0E816F9069CF2DA
:101450000F5F1F4F00311105A9F0F801EE0FFF1FBC
:10146000E00FF11F23E0EE0FFF1F2A95E1F7EE508A
:10147000FD4FEE24FF2490EA892E91E0992E800EF4
:10148000911EE0CF1092EE021092ED028091CA01FF
:101490009091CB01181619069CF49C01442737FD46
:1014A0004095542F60917404709175048091760476
:1014B000909177040E9476113093EE022093ED0212
:1014C000C6018A0D9B1D62E070E00E94631170935B
:1014D0008C0460938B0460912F0170E080E090E0B9
:1014E00024E630E040E050E00E9430119B01AC0166
:1014F00060917404709175048091760490917704E2
:101500000E947611C901DA018093740490937504E6
:10151000A0937604B0937704181619061A061B06D2
:1015200024F08091890490918A049093F102809331
:10153000F0028091EF02882309F4B9C1853009F4E3
:10154000B6C16091CE017091CF018091D001909190
:10155000D10128EE33E040E050E00E947611609126
:10156000180137FF03C0309521953F4F669DC0019C
:1015700011248217930764F4693750F48091D601DF
:101580009091D70101969093D7018093D60104C022
:101590001092D7011092D60190911601992391F1E2
:1015A00084E1989FC00111242091F0023091F10252
:1015B0002817390760F08091D4019091D501892BCB
:1015C00031F481E090E09093D5018093D401809133
:1015D000160124E1829FC00111242091F002309174
:1015E000F1022817390770F48091D4019091D50148
:1015F000059724F080913101882321F01092D501C4
:101600001092D4012091D4013091D501C9010197E4
:101610008F53984330F42F5F3F4F3093D501209381
:10162000D4018091D4019091D50180549843F9F46C
:101630008091EF02833021F0809131018823B9F04D
:101640008091E5029091E602A091E702B091E80254
:1016500080939D0490939E04A0939F04B093A00454
:1016600080913101882319F484E00E9478058091EB
:101670002101869D700111242CED35E0E20EF31E50
:1016800080912201869D800111240053184F1092F1
:10169000DE011092DD011092DF011092E00180EA7C
:1016A000882E81E0982EBDEBAB2EB2E0BB2E6401FC
:1016B00040E050E077247394A2E05A2ED6018C913A
:1016C000882309F4AFC0CA01880F991F840F951FA2
:1016D000880F991F880F991FFC01E450FE4FFA876D
:1016E000E987FC01EE0FFF1FEE50FD4F1C861B86A5
:1016F0005AC080913101208131818823D9F10217AC
:1017000013071CF4A985BA855C92808191818E159E
:101710009F051CF4A985BA851C9280912401869DA1
:10172000C00111248E0D9F1D2081318182179307E6
:1017300034F4A985BA858C91882309F47C92809130
:10174000240190E09C0166EF7FEF269FC001279F58
:10175000900D369F900D1124800F911F20813181B3
:10176000281739079CF4A985BA858C91823071F4C9
:101770007C920CC00217130714F47092DD01808173
:1017800091818E159F0514F47092DE012B853C85A6
:101790002F5F3F4F3C872B8769857A856F5F7F4F2F
:1017A0007A8769873296D6018C9190E02B853C85AB
:1017B000281739070CF49DCFFA01EE0FFF1FE454F0
:1017C000FD4FE081EE23C1F080912501E81778F00C
:1017D00090912601FA01EE0FFF1FE454FD4F808126
:1017E000981750F49D3840F47092E00105C08823AA
:1017F00079F37092DF01ECCFD5019C91992391F0A0
:1018000080912501981720F4882311F07092DF0150
:1018100090912601F5018081981720F49D3810F4ED
:101820007092E0014F5F5F4F0894C11CD11C22E011
:1018300030E0A20EB31E4031510509F03FCF809138
:1018400031018823A1F181E08093F9018093840420
:1018500040E050E0D4018C91882309F1FA01EE0FA9
:10186000FF1FE40FF51FEE0FFF1FEE0FFF1FE450E9
:10187000FE4F20E030E00DC08081823011F41092E4
:10188000F9018081882311F4109284042F5F3F4F67
:101890003196D4018C9190E0281739076CF34F5F93
:1018A0005F4F0894811C911C4031510599F640917D
:1018B000E9025091EA0283E0559547958A95E1F750
:1018C0001092EA021092E90288ED9FEF9093EC02E9
:1018D0008093EB02E0EBF1E000E010E0A081B18149
:1018E000A417B5072CF1628173816417750704F59D
:1018F00084E190E0089F9001099F300D189F300D02
:101900001124285230404A1B5B0B6A1B7B0BFC01E5
:101910004E9FC0014F9F900D5E9F900D11240E941D
:101920006311260F371F3093EC022093EB0206C0A1
:101930000F5F1F4F32960A30110581F687E00E9433
:10194000C7039C0103E0880F991F0A95E1F7220F56
:10195000331F820F931F62E270E00E946311609355
:10196000F80170E080911A01869DC001112468176A
:10197000790774F48091F4019091F501F3E0883EC9
:101980009F0754F401969093F5018093F40104C0ED
:101990001092F5011092F40160919D0470919E04E3
:1019A00080919F049091A004672F782F892F992709
:1019B00087FD9A9529EC30E040E050E00E9430111C
:1019C0002091E5023091E6024091E7025091E80251
:1019D000232F342F452F552747FD5A950E94761106
:1019E0005595479537952795A9013093D9012093AF
:1019F000D8011091C6011230A1F480918504909114
:101A0000860423E330E0AC01429FC001439F900D68
:101A1000529F900D112464E170E00E94631167BD34
:101A200033C020911E0180911D0190E030E0821BA7
:101A3000930BBC01469FC001479F900D569F900D90
:101A4000112464E670E00E944F11260F371FE3E374
:101A5000F0E02E9FC0012F9F900D3E9F900D11240E
:101A600064E170E00E944F1167BD133069F480910A
:101A7000850490918604DC01AE9FC001AF9F900D5C
:101A8000BE9F900D112425C02091200130E080914F
:101A90001F0190E0821B930B4091EB025091EC02EE
:101AA00060911901FC01E49FC001E59F900DF49F36
:101AB000900D112470E00E946311260F371F83E3FD
:101AC00090E0AC01249FC001259F900D349F900DA4
:101AD000112464E170E00E94631168BD80913101BE
:101AE0008823C1F18091F9019091EF02882339F4A4
:101AF000923091F486E08093DC012C980DC09230F6
:101B000059F48091DC01863011F41092DC0180914F
:101B1000EF02843009F02C9A809184049091EF02B6
:101B2000882341F4923009F094C084E08093DC0172
:101B300046988FC0923009F08CC08091DC018430CF
:101B400011F41092DC018091EF02843009F481C01D
:101B5000469A7FC08091DD01882311F12091EF0228
:101B6000822F82508230E0F48091E1019091E20175
:101B7000049714F0223069F486E08093DC018091B0
:101B8000E1019091E20101969093E2018093E101DD
:101B900011C084E00E94780587E08093DC010AC0D0
:101BA0001092E2011092E1018091DC01863011F483
:101BB0001092DC018091DE01882311F18091EF0207
:101BC00082508230E8F48091E3019091E401883200
:101BD00091057CF40B971CF084E08093DC018091EC
:101BE000E3019091E40101969093E4018093E30175
:101BF00011C084E00E94780585E08093DC010AC072
:101C00001092E4011092E3018091DC01843011F420
:101C10001092DC0180912C018330B9F4369B02C014
:101C20001A9904C0369911C01A990FC08091E90120
:101C30009091EA0101969093EA018093E90104975B
:101C400041F48FE08093DC0104C01092EA0110920D
:101C5000E9018091DF01882371F08091E501909185
:101C6000E60153E0883E950754F401969093E6010F
:101C70008093E50104C01092E6011092E501809185
:101C8000E001882371F08091E7019091E80163E021
:101C9000883E960754F401969093E8018093E701FB
:101CA00004C01092E8011092E7014091E7015091C1
:101CB000E801453051052CF12091EF02222309F172
:101CC0002530F9F08091EC019091ED01A091EE01A9
:101CD000B091EF0190FD15C080912D01833071F01E
:101CE00080912E01833051F0233029F0223031F4DD
:101CF000493251051CF084E00E94780588E0809309
:101D0000DC014091E5015091E601453051052CF18F
:101D10002091EF02222309F12530F9F08091EC01A6
:101D20009091ED01A091EE01B091EF0191FD15C0F0
:101D300080912D01843071F080912E01843051F01A
:101D4000233029F0223031F4493251051CF084E06F
:101D50000E94780589E08093DC016091CE0170914A
:101D6000CF018091D0019091D10128EE33E040E085
:101D700050E00E9476116091170137FF03C0309543
:101D800021953F4F669DC00111248217930744F4AB
:101D9000693730F48091EC0182FD02C082E073C0AB
:101DA0008091D6019091D701059738F083E0809318
:101DB000DC0184E00E94780568C05091EF02523047
:101DC000C1F48091150190E02091D8013091D901A2
:101DD0008217930790F08091EC019091ED01A09112
:101DE000EE01B091EF0192FD08C07AE07093DC0142
:101DF0004CC0552309F15530F9F040911901242FB9
:101E000030E08091EB029091EC0228173907A4F49E
:101E1000473991F08091C8019091C901819764F090
:101E20008091EC019091ED01A091EE01B091EF0154
:101E300093FD02C08BE027C080911B0190E02091B0
:101E400072043091730428173907B4F48091EC01BF
:101E50009091ED01A091EE01B091EF0194FD0CC0C5
:101E6000552351F0553041F08091C8019091C9013E
:101E7000819714F08CE007C08091F4019091F501F6
:101E8000449719F48DE08093DC018091EF02882360
:101E900029F1853019F100E010E0F801E056FE4F1D
:101EA00080818823B1F0F801E357FB4F80818530B2
:101EB00080F08091EC019091ED01A091EE01B09144
:101EC000EF01A0FD03C080E18093DC0184E00E946B
:101ED00078050F5F1F4F00311105F9F680912C0135
:101EE000823011F02A9A01C02A9889E10E94E10308
:101EF0008AE10E94E10360919D0470919E048091AB
:101F00009F049091A00420EA3CE840E050E00E9449
:101F1000761180912C01823011F040E008C083B12D
:101F200090E09695879596958795482F417080917A
:101F3000DC01880F880F880F9091EF02890F898349
:101F40003A832B838091F1028C838091F0028D8300
:101F50008091F8018E8347954427479580917204BC
:101F6000480F4F838091EB02885D88876EE170E0B7
:101F700080E090E0A10128E00E94A6048091EF0299
:101F8000833041F0823009F0C0C080913101882354
:101F900009F4BBC02091280130E0C901807890701D
:101FA00044E150E0849F7001859FF00C949FF00CF9
:101FB000112480912701869DC0011124E80EF91E8D
:101FC0002F773070890173E0000F111F7A95E1F7C8
:101FD000220F331F020F131F80912C01813011F546
:101FE0001A9920C080912A0190E09C0120783070DD
:101FF000249F7001259FF00C349FF00C1124209138
:102000002901269D90011124E20EF31E8F77907016
:102010008C0133E0000F111F3A95E1F7880F991FEB
:10202000080F191F8091DA019091DB01009751F19F
:10203000C090F002D090F102C114D10419F420E054
:1020400030E01CC09C0194E32631390710F025E1F3
:1020500034E3C9016AE070E00E944F11261B370B80
:10206000B90180E090E024E630E040E050E00E94DA
:102070003011960140E050E00E94761120173107A0
:1020800008F489018F2D992787FD9A958983AFEFF1
:10209000EA22FF24EA82812F992787FD9A958B8374
:1020A0000C8380913101882331F01D828091F901E8
:1020B000882381F40DC08091DD01882321F0809177
:1020C000EF02823029F01D828091EF02843011F4FA
:1020D00081E08D8318861F821E8264EF75EE86E094
:1020E00098E1A10128E00E94A60464EF77EE86E063
:1020F00098E1A10128E00E94A60464EF78EE86E052
:1021000098E1A10128E00E94A604809131019091FC
:10211000EF02882399F0992349F4309B07C08091FE
:10212000DC01882319F482E00E9478058091EF0297
:10213000823009F072C0309970C06CC0992379F474
:10214000309B0DC08091DC01882349F480913001DF
:10215000882311F081E001C082E00E94780580911F
:10216000EF02813029F4309903C080E00E947805A5
:102170009091EF02913041F48091EB01882321F49A
:102180004D9902C09093EB018091EF028130B9F438
:102190008091EB01882331F48091C8019091C901AD
:1021A00041973CF48091C8019091C901813A910511
:1021B00034F08EE08093DC0184E00E947805809109
:1021C000EF02813079F48091EB01882359F04D9B27
:1021D00009C08091C8019091C90103971CF082E069
:1021E0000E9478058091EF02823029F4309903C073
:1021F00080E00E9478058091EF02882329F41D99E0
:1022000003C083E00E9478058091EF02833029F4B7
:102210001D9B03C080E00E9478058091EF0284300E
:1022200039F4309905C01D9B03C080E00E947805F9
:102230008091EF02882339F48091C601882319F038
:1022400085E00E9478058091EF02853031F480911D
:10225000C601882311F40E947805A8950C949B0769
:10226000629FD001739FF001829FE00DF11D649F7A
:10227000E00DF11D929FF00D839FF00D749FF00D06
:10228000659FF00D9927729FB00DE11DF91F639FA7
:10229000B00DE11DF91FBD01CF0111240895AA1B46
:1022A000BB1B51E107C0AA1FBB1FA617B70710F041
:1022B000A61BB70B881F991F5A95A9F78095909573
:1022C000BC01CD01089597FB092E07260AD077FDA2
:1022D00004D0E5DF06D000201AF4709561957F4F99
:1022E0000895F6F7909581959F4F089597FB092ED5
:1022F00005260ED057FD04D014D00AD0001C38F4A7
:1023000050954095309521953F4F4F4F5F4F089521
:10231000F6F790958095709561957F4F8F4F9F4F01
:102320000895A1E21A2EAA1BBB1BFD010DC0AA1F16
:10233000BB1FEE1FFF1FA217B307E407F50720F02E
:10234000A21BB30BE40BF50B661F771F881F991FA9
:102350001A9469F760957095809590959B01AC01F2
:10236000BD01CF010895F999FECF92BD81BDF89AC4
:10237000992780B50895A6E1B0E044E050E00C94C0
:10238000E411A8E1B0E042E050E00C94E411262F03
:10239000F999FECF1FBA92BD81BD20BD0FB6F8944A
:1023A000FA9AF99A0FBE01960895242F0E94C81137
:1023B000252F0E94C8110C94DD110E94C711272FF0
:1023C0000C94C811DC01CB01FC01F999FECF06C0C9
:1023D000F2BDE1BDF89A319600B40D9241505040E3
:0823E000B8F70895F894FFCF4F
:1023E8000801050500000001000096B464640403B8
:1023F80003030C141414507979970A3202501450BC
:102408001464B4FB14008D640A6414050000000110
:102418000100000A01000001000501010008000197
:1024280000000000000000000000000000000100A3
:1024380000000100000000000000FA63FB797997B2
:1024480010630664646464FAFAFC328D8DFFFFFF42
:10245800FF06030606140101010A010101FA634699
:1024680079790010030000000000FAFAFC328D8D23
:1024780046FF000000000000000001010A01010100
:102488000C00000000000000000000000000000038
:10249800DE03B6030F0338026401CC00720041006A
:0824A800260017000F00FF00E1
:00000001FF
